:1000000047C056C055C054C053C052C051C050C064
:100010004FC04EC04DC04CC04BC04AC0F3C048C0DA
:1000200047C046C045C044C00000000000000000BA
:1000300000030400000000000000000000000000B9
:1000400000000000010204081020408001020408A2
:1000500010204080800102040810200102040840A2
:100060000404040404040404020202020202020260
:1000700003030303030303010101010300002E0036
:10008000250028002B0000002D00240027002A0056
:1000900011241FBECFEFD2E0DEBFCDBF21E0A0E034
:1000A000B1E001C01D92A930B207E1F7E5D1ECC182
:1000B000A7CFCF93C0E061E08C2F66D1CF5FC03176
:1000C000D1F7CF91089561E08FE09CD161E08EE09F
:1000D00099D161E08DE096D161E08CE093D162E34B
:1000E00070E080E090E0FED060E08FE08BD160E0D7
:1000F0008EE088D160E08DE085D160E08CE082D137
:1001000062E370E080E090E0EDD061E08FE07AD1D2
:1001100061E08EE077D161E08DE074D161E08CE048
:1001200071D162E370E080E090E0DCD060E08FE0CD
:1001300069D160E08EE066D160E08DE063D160E07F
:100140008CE060D162E370E080E090E0CBD061E0D1
:100150008BE058D161E08AE055D161E089E052D16D
:1001600061E088E04FD162E370E080E090E0BAD0D7
:1001700060E08BE047D160E08AE044D160E089E054
:1001800041D160E088E03ED162E370E080E090E041
:10019000A9D061E08BE036D161E08AE033D161E043
:1001A00089E030D161E088E02DD162E370E080E049
:1001B00090E098D060E08BE025D160E08AE022D129
:1001C00060E089E01FD160E088E01CD164E670E067
:1001D00080E090E087C0E1E8F0E08081887F808364
:1001E000A0E8B0E08C9181608C938C918D7F8C9392
:1001F0008081877F808380818F7E80838081836000
:10020000808308951F920F920FB60F9211242F939F
:100210003F938F939F93AF93BF93809101019091F0
:100220000201A0910301B09104013091000126E088
:10023000230F2D3730F029E8230F0396A11DB11DA0
:1002400003C00296A11DB11D2093000180930101FE
:1002500090930201A0930301B093040180910501E2
:1002600090910601A0910701B09108010196A11D8E
:10027000B11D8093050190930601A0930701B093EF
:100280000801BF91AF919F918F913F912F910F9056
:100290000FBE0F901F9018953FB7F89480910501FD
:1002A00090910601A0910701B091080126B5A89B85
:1002B00005C02F3F19F00196A11DB11D3FBFBA2FF8
:1002C000A92F982F8827820F911DA11DB11DBC0158
:1002D000CD0143E0660F771F881F991F4A95D1F71C
:1002E00008950895CF92DF92EF92FF92CF93DF931C
:1002F0006B017C01D1DFEB01C114D104E104F104F5
:1003000079F0EFDFC9DF6C1B7D0B683E7340A0F313
:1003100081E0C81AD108E108F108C851DC4FF2CFDA
:10032000DF91CF91FF90EF90DF90CF90089585B54A
:10033000887F836085BD7894EEE6F0E080818160FF
:10034000808349DFEAE7F0E08081887786688083F0
:100350008081806880830895833049F48091800093
:100360008F7780938000809180008F7B0AC08430DB
:1003700051F4809180008F7D809380008091800077
:100380008F7E809380000895CF93DF9387FD8FEF5A
:1003900090E0FC01EC5BFF4F2491FC01E05AFF4F21
:1003A0008491882361F190E0880F991FFC01EA573E
:1003B000FF4FC591D491FC01E458FF4FA591B49132
:1003C000611109C09FB7F8948881209582238883A2
:1003D000EC912E230BC0623061F49FB7F894388102
:1003E000822F809583238883EC912E2B2C939FBFA3
:1003F00006C08FB7F894E8812E2B28838FBFDF913A
:10040000CF9108950F931F93CF93DF931F92CDB792
:10041000DEB787FD8FEF282F30E0F901E85DFF4F51
:100420008491F901EC5BFF4F1491F901E05AFF4F01
:1004300004910023D9F0882319F069838DDF698145
:10044000E02FF0E0EE0FFF1FE458FF4FA591B491AD
:100450008FB7611106C0F8949C91E12FE095E923D4
:1004600003C0F894EC91E12BEC938FBF0F90DF91D8
:10047000CF911F910F91089580916600809366003F
:0C04800056DF17DE20DEFECFF894FFCF21
:00000001FF
